:100000000C9461000C9473000C9473000C947300B6
:100010000C9473000C9473000C9473000C94730094
:100020000C9473000C9473000C9473000C94730084
:100030000C9473000C9473000C9473000C94730074
:100040000C941D010C9473000C9473000C947300B9
:100050000C9473000C9473000C9473000C94730054
:100060000C9473000C947300000000002300260021
:10007000290000000008000201000003040700003E
:1000800000000000000000000000250028002B00F8
:1000900000000000240027002A00040404040404D3
:1000A0000404020202020202030303030303010227
:1000B00004081020408001020408102001020408F6
:1000C000102011241FBECFEFD8E0DEBFCDBF21E04E
:1000D000A0E0B1E001C01D92A930B207E1F70E9493
:1000E00067010C94CD010C940000CF93DF9390E056
:1000F000FC01E255FF4F249186569F4FFC018491ED
:100100008823C1F090E0880F991FFC01E057FF4F52
:10011000C591D491FC01EA57FF4FA591B4919FB7C7
:10012000F8948881E22FE0958E2388838C91E823D0
:10013000EC939FBFDF91CF910895833081F028F435
:10014000813099F08230A9F008958730A9F0883085
:10015000C9F08430B1F4809180008F7D03C080911C
:1001600080008F7780938000089584B58F7784BD59
:10017000089584B58F7DFBCF8091B0008F778093F9
:10018000B00008958091B0008F7DF9CFCF93DF93B9
:10019000282F30E0F901EE58FF4F8491F901E25524
:1001A000FF4FD491F901E656FF4FC491CC23A1F043
:1001B00081110E949D00EC2FF0E0EE0FFF1FE85927
:1001C000FF4FA591B491EC91ED2381E090E009F40B
:1001D00080E0DF91CF91089580E090E0FACF1F9307
:1001E000CF93DF93282F30E0F901EE58FF4F849131
:1001F000F901E255FF4FD491F901E656FF4FC49142
:10020000CC23A9F0162F81110E949D00EC2FF0E065
:10021000EE0FFF1FEA57FF4FA591B4918FB7F894E7
:10022000EC91111108C0D095DE23DC938FBFDF91D4
:10023000CF911F910895DE2BF8CF1F920F920FB62A
:100240000F9211242F933F938F939F93AF93BF935C
:100250008091050190910601A0910701B0910801DC
:100260003091040123E0230F2D3758F50196A11D8D
:10027000B11D209304018093050190930601A09382
:100280000701B09308018091000190910101A091B4
:100290000201B09103010196A11DB11D80930001DF
:1002A00090930101A0930201B0930301BF91AF911C
:1002B0009F918F913F912F910F900FBE0F901F90A4
:1002C000189526E8230F0296A11DB11DD2CF789470
:1002D00084B5826084BD84B5816084BD85B582604B
:1002E00085BD85B5816085BD80916E0081608093FC
:1002F0006E00109281008091810082608093810065
:100300008091810081608093810080918000816074
:10031000809380008091B10084608093B1008091CF
:10032000B00081608093B00080917A0084608093F7
:100330007A0080917A00826080937A0080917A00BE
:10034000816080937A0080917A00806880937A003F
:100350001092C1008DE00E94750081E00E9475003E
:1003600061E08DE00E94EF00C0E0D0E081E00E94FB
:10037000C600019721F460E08DE00E94EF0081E06B
:100380000E94C600892B21F461E08DE00E94EF00FD
:0E039000209761F30E940000E9CFF894FFCFA0
:00000001FF
